:020000040800F2
:10000000B808002079020008151F0008591D0008D3
:10001000111F000871040008F1240008000000000E
:100020000000000000000000000000001D1F00088C
:10003000A504000800000000191F0008211F000887
:10004000930200089302000893020008930200083C
:10005000930200089302000893020008930200082C
:10006000930200089302000893020008930200081C
:10007000930200089302000893020008930200080C
:1000800093020008930200089302000893020008FC
:1000900093020008930200089302000893020008EC
:1000A00093020008930200089302000893020008DC
:1000B00093020008930200089302000893020008CC
:1000C00093020008930200089302000893020008BC
:1000D00093020008D9240008930200089302000844
:1000E000930200089302000893020008930200089C
:1000F000930200089302000893020008930200088C
:10010000930200089302000893020008930200087B
:10011000930200089302000893020008930200086B
:100120009302000875040008810400089302000887
:10013000930200089302000893020008930200084B
:10014000930200089302000893020008930200083B
:10015000930200088D04000899040008E5240008B3
:10016000930200089302000893020008930200081B
:1001700093020008930200089302000800000000A8
:1001800093020008930200089302000893020008FB
:1001900093020008930200089302000893020008EB
:1001A00000000000000000009302000800F002F8C8
:1001B00000F052F814A696E8000CB244B344DA45B5
:1001C00001D100F049F8BAE80F000FA696E8300018
:1001D000A5EB040504EB0607AAEB0704A7F101074A
:1001E0004FEA15154FEA3414A4F10104AC4201D3CF
:1001F00000F032F813F0010F18BFFB1A43F00103AF
:1002000000F001F8DBE71847EC2300000C240000A5
:10021000103A24BF78C878C1FAD8520724BF30C832
:1002200030C144BF04680C60704700007047000094
:100230000023002400250026103A28BF78C1FBD8EF
:10024000520728BF30C148BF0B6070471FB502F08E
:10025000B4F91FBD10B510BD00F0D0F81146FFF77E
:10026000F5FF02F047F900F0EEF803B4FFF7F2FFF4
:1002700003BC00F0F5F80000094880470948004732
:10028000FEE7FEE7FEE7FEE7FEE7FEE7FEE7FEE746
:10029000FEE7FEE704480549054A064B70470000A3
:1002A000251F0008AD010008B8020020B808002092
:1002B000B8040020B804002053EA020C00F0698062
:1002C0002DE9F04B4FF00006002B1FBFB3FA83F56A
:1002D00003FA05F424FA05F65E4012BF1643B2FA9B
:1002E00082F502FA05F4C5F120051EBF22FA05FCCD
:1002F00044EA0C04203556EA044C4FEA144418BF73
:10030000641C4FF000084FF00009904271EB030CA1
:1003100039D3002919BFB1FA81F701FA07F6B0FA0B
:1003200080F700FA07F6C7F120071EBF20FA07FC86
:1003300046EA0C062037B6FBF4FCA7EB0507103F96
:1003400007F01F0BCBF120062CFA06F60CFA0BFB7C
:1003500044BFB3460026202FA4BF5E464FF0000BDB
:100360005BEA060C08BF4FF0010B19EB0B0948EBD9
:100370000608ABFB027C06FB02CC0BFB03CCC01BCC
:1003800071EB0C01C1E70B46024641464846BDE809
:10039000F08B13B5084318BF4FF0FF300146AFF3A1
:1003A0000080BDE81C4070474FF0000200B51346C6
:1003B00094469646203922BFA0E80C50A0E80C5085
:1003C000B1F12001BFF4F7AF090728BFA0E80C5036
:1003D00048BF0CC05DF804EB890028BF40F8042B2F
:1003E00008BF704748BF20F8022B11F0804F18BF9C
:1003F00000F8012B7047704770477047754600F052
:100400002BF8AE4605006946534620F007008546A6
:1004100018B020B5FFF73EFFBDE820404FF00006C2
:100420004FF000074FF000084FF0000BAC46ACE86F
:10043000C009ACE8C009ACE8C009ACE8C00921F0CB
:1004400007018D46704710B50446AFF30080204683
:10045000BDE81040FFF709BF0048704710000020BA
:1004600001491820ABBEFEE72600020070470000DD
:10047000FEE7000040F23010C2F2000000F072B857
:1004800040F27000C2F2000000F06CB840F2901030
:10049000C2F2000000F066B840F2D000C2F20000E4
:1004A00000F060B87047000072B600BFFEE70000C1
:1004B00070B5866D044600F019FB94F835100229DA
:1004C00028D105462068216C026822F016020260DD
:1004D000426922F08002426109B9A16C19B1016838
:1004E00021F008010160016821F00101016000BFF5
:1004F00020680068C00715D000F0F8FA401B0628F5
:10050000F6D320206065032084F83500002184F8AC
:10051000341070BD802060650120002184F8341003
:1005200070BD00BFE06D3F2101FA00F0B060012016
:1005300084F835000020002184F8341070BD0000DC
:1005400090F83510022909D1052180F8351000688E
:10055000016821F0010101600020704780214165A0
:1005600001207047F0B581B00021009140F20801F0
:10057000C2F200010B68D0E9166148F2B515376880
:100580000822C1F64E358A403A42A3FB05350CD00D
:1005900003681C68640708D51C6824F004041C6008
:1005A000B260426D42F00102426501228A403A4245
:1005B00008D003685B691B0604D5B260426D42F047
:1005C0000202426504228A403A4208D003681B684E
:1005D0009B0704D5B260426D42F0040242651022CE
:1005E0008A403A4219D001680B681B0715D5B260E2
:1005F0000B680A685B0309D4D20509D40A6822F0A3
:1006000008020A60016C29B907E000BF110341D458
:10061000016C11B1044688472046C26D202101FAC1
:1006200002F33B4243D001680F68FF063FD5B36039
:1006300090F835700B68052F1CD123F016030B6062
:100640004B6923F080034B61036C0BB9836C1BB1C6
:100650000B6823F008030B603F219140B16001213A
:1006600080F83510016D0022002980F8342054D123
:1006700058E000BF0A685B0310D4D20512D40A68A0
:1006800022F010020A60012180F83510002180F864
:10069000341007E0816C0029BCD1BEE7110301D4FE
:1006A000416C00E0C16B11B1044688472046416DA2
:1006B000C1B3416DC9072ED0052180F835100168FE
:1006C000AA0A0B6823F001030B60009B01339342DD
:1006D00000931AD80B68DB0717D0009B01339342B5
:1006E000009312D80B68DB070FD0009B01339342B5
:1006F00000930AD80B68DB0707D0009B01339342B5
:10070000009302D80B68DB07DFD1012180F8351098
:10071000002180F83410C16C21B101B0BDE8F04077
:10072000084700BF01B0F0BD2DE9F041044600F0DC
:10073000DDF9ECB10546022084F83500002021687F
:1007400084F83400086820F0010008602168086817
:10075000C00711D000F0CAF9401B0528F6D90325BF
:1007600020230320636584F83550BDE8F08100BF85
:100770000120BDE8F08100BF086848F23F02CFF2D7
:100780001002D4E9013500EA020C04F10C0898E8E3
:10079000C10143EA0C032B431843D4E9072E30432D
:1007A00038431043626A40EA0E00042A40EA080314
:1007B0001CD1206BD4E90A2E40EA0E0018430860D1
:1007C0004869BEF1000F20F0030040EA020040F04B
:1007D000040C11D0B8F5005F36D0B8F1000F45D148
:1007E000022A46D0012A3BD032B942E00B60486968
:1007F00020F0070040EA020C01F0F8004AF6AB22B4
:100800001038CAF6AA22A0FB02231A0942F2EC53BE
:10081000C1F814C0C0F600039A5C40F2FF335F28B1
:100820004FF03F0021EA030100FA02F088BF0431D3
:10083000C4E916128860002301250020636584F84E
:100840003550BDE8F08100BF032AD5D801254023EB
:100850000120DFE802F0030E030500BF82E700BFBE
:10086000AEF1C070B0FA80F0400904E0032A04D36E
:10087000C2D1CEF300600028BED001254023012064
:10088000636584F83550BDE8F081000090F834C00D
:10089000BCF1010F04BF0220704770B54FF0010C8E
:1008A00080F834C0D0F858E090F835C0BCF1010FA2
:1008B00038D14FF0020C80F835C04FF0000CC0F872
:1008C00054C0D0F800C08468056CC06DDCF80060CE
:1008D000402C26F48026CCF80060CCF804300B467F
:1008E00004BF13460A463F2101FA00F0CCF8083055
:1008F000CCF80C20CEF80800DCF8000040F0160020
:10090000CCF800002DB1DCF8000040F00800CCF875
:100910000000DCF8000040F00100CCF800000020EE
:1009200070BD00BF002180F83410022070BD0000AF
:100930002DE9F04F83B000F1200200F13E4742F272
:100940000045009207F1FF77C4F202050A224FEA40
:10095000B726A84208BF092200254FF000084FF033
:100960000009092E38BF4FEAB72201920AE000BF02
:1009700009F1010908F10208B9F1100F05F10405A8
:1009800000F0A2800F68012202FA09FE17EA0E0A9F
:10099000EED0D1F804C003220CF003077E1E02FA49
:1009A00008F4012E6FEA040B12D88468CE6804EABA
:1009B0000B0406FA08F634438460446824EA0E0601
:1009C000CCF3001404FA09F42643466004E000BFA7
:1009D000032F01D103271EE0C6688C6806EA0B06C8
:1009E00004FA08F42643022FC66014D16FF0030204
:1009F000009E02EA590756F807C005F01C040F22B2
:100A00000B69A2402CEA0202A3401A43F251D1F82A
:100A100004C00CF00307026807FA08F302EA0B02AD
:100A20001A431CF4403F0260A2D0002243F6440364
:100A30000292C4F202031A6843F6004442F4804270
:100A40001A601A68C4F2010402F480420292029A07
:100A500029F003024FF6084C2244CFF6FF7C52F8EF
:100A60000C3005F00C070F26BE40B343019E06FA7A
:100A700007F73B4342F80C30A2684B6842EA0A078A
:100A800043F60C4CDE0258BF22EA0A07A760C4F204
:100A9000010CDCF800209E0242EA0A0758BF22EA55
:100AA0000A07CCF8007062689E0342EA0A0758BF42
:100AB00022EA0A0767602268DB0342EA0A0758BF96
:100AC00022EA0A07276053E703B0BDE8F08F000071
:100AD000426902EA0103914341EA0341816170479F
:100AE000002A08BF090481617047000040F2B42069
:100AF000C2F200000068704740F2000040F2B421EA
:100B0000C2F20000C2F2000100780A6810440860D6
:100B10007047000080B543F60040C4F2020001684F
:100B200041F400710160016841F480610160016875
:100B300041F480710160032000F086F80F2000F07E
:100B400005F800F027F8002080BD000070B540F2E5
:100B50000006C2F2000640F208013278C2F200013B
:100B60004FF47A730968B3FBF2F20446B1FBF2F179
:100B7000084600F05FFB0F2C4FF0010508D838B98C
:100B80004FF0FF3021460022002500F031F874605C
:100B9000284670BD82B0002043F640010190C4F2A7
:100BA00002014A6842F480424A604A6802F4804284
:100BB0000192019A0090086840F08050086008682F
:100BC00000F080500090009802B07047002848BFA5
:100BD000704700F01F01012202FA01F11C2202EA13
:100BE000D0004EF20012CEF2000281507047000099
:100BF00010B54EF60C5CCEF2000CDCF80030C3F3FE
:100C0000022E8EF00704042C28BF0424BEF1030337
:100C10004FF0FF3E0EFA04F438BF0023A143994081
:100C20000EFA03F39A43114300F00F0200F1604300
:100C30000901043A03F564436244002848BF02F105
:100C40000C03197010BD00004EF60C51CEF20001DD
:100C50000A684FF6FF031A4060F30A2242F08060F0
:100C600040F0FD7008607047002804BF0120704705
:100C70002DE9F04143F60808C4F202080446D8F80A
:100C8000F8030D4600F00F00884207D288F8F853A9
:100C9000D8F8F80300F00F00A84277D12068810748
:100CA00017D5410705D5D8F8001041F4E051C8F830
:100CB0000010010705D5D8F8001041F46041C8F8CC
:100CC0000010D8F80010A26821F0F0011143C8F814
:100CD0000010C00740D1D8F8F80300F00F00A84278
:100CE00007D988F8F853D8F8F80300F00F00A842A5
:100CF0004CD12068410707D5D8F80010E26821F4EC
:100D0000E0511143C8F80010000708D5D8F80000DA
:100D1000216920F4604040EAC100C8F8000000F0FA
:100D20007DF8D8F8001042F2D452C1F30311C0F696
:100D30000002515C40F2080220FA01F140F2040086
:100D4000C2F200000068C2F200021160FFF7FEFE6E
:100D50000020BDE8F08100BF6068811E022907D233
:100D600058F8081C89015CBF0120BDE8F08111E042
:100D7000012807D158F8081C89035CBF0120BDE891
:100D8000F08107E058F8081C890703D40120BDE86A
:100D9000F08100BFD8F8001021F003010843C8F823
:100DA0000000FFF7A3FE064641F28837D8F800009E
:100DB000616800F00C00B0EB810F8CD0FFF796FE5D
:100DC000801BB842F2D90320BDE8F08140F2080050
:100DD00043F60801C2F20000C4F20201006809688B
:100DE00042F2E452C1F38221C0F60002515CC840D5
:100DF0007047000040F2080043F60801C2F200000C
:100E0000C4F202010068096842F2E452C1F34231BF
:100E1000C0F60002515CC8407047000010B543F6B0
:100E20000404C4F20204606800F00C0008280BD02F
:100E3000042819BF42F20040C0F2F40047F6400017
:100E4000C0F27D1010BD00BF2068216823684902F0
:100E500047F64001C0F27D1100F03F02C3F3881055
:100E60005CBF42F20041C0F2F401A1FB000100238B
:100E7000FFF722FA21680222C1F3014102EB41018E
:100E8000B0FBF1F010BD0000002804BF0120704746
:100E90002DE9F04182B00446007843F60006C00711
:100EA000C4F202060CD0B06800F00C00042840F038
:100EB00081803068800303D56068002800F0688175
:100EC000207880071BD5B06810F00C0F09D0B068EF
:100ED00000F00C00082840F087807068400200F1A4
:100EE00083803068800703D5E068012840F0508196
:100EF0003068216920F0F80040EAC10030602078B5
:100F0000000713D4207840072AD4A569002D00F0EB
:100F10003A81B06800F00C00082840F0A580012D4F
:100F200040F00E81012002B0BDE8F0816069002828
:100F300000F082800020C4F247200121C0F8801E0A
:100F4000FFF7D4FD054600BF706F8007DAD4FFF7C6
:100F5000CDFD401B0228F7D9032002B0BDE8F08187
:100F6000306C5FEAC0080AD400200190306C40F079
:100F700080503064306C00F080500190019847F24E
:100F80000007C4F200073868C00547D4386840F449
:100F900080703860FFF7AAFD054600BF3868C005BD
:100FA0003CD4FFF7A3FD401B0228F7D9032002B071
:100FB000BDE8F081B06800F00C00082803D170682B
:100FC00040023FF576AF61683068B1F5803F07D0E9
:100FD000B1F5A02F40F09A8040F480203060306856
:100FE00040F4803030609AE0E068002840F2000071
:100FF000C4F247205CD001210160FFF777FD054670
:10100000306880073FF574AFFFF770FD401B022882
:10101000F6D9032002B0BDE8F08100BFA168306FAF
:10102000012905D0052955D140F004003067306F03
:1010300040F00100306756E00020C4F24720002154
:10104000C0F8801EFFF752FD054600BF706F800795
:101050007FF558AFFFF74AFD401B0228F6D9032061
:1010600002B0BDE8F08100BF0027C4F2472700208E
:101070003866FFF73BFD022D05460DD13068800133
:1010800040F18A80FFF732FD401B02284FF0030039
:10109000F4D902B0BDE8F0813068800173D5FFF764
:1010A00025FD401B02284FF00300F5D9F1E700BFF2
:1010B00000210160FFF71AFD054600BF3068800778
:1010C0007FF51DAFFFF712FD401B02284FF0030014
:1010D000F4D9DEE720F001003067306F002920F0FE
:1010E000040030677AD0FFF701FD054641F28837EA
:1010F000306F800700F18480FFF7F8FC401BB84296
:10110000F6D9032002B0BDE8F08100BF20F48030A2
:1011100030603068002920F4802030607AD0FFF7FA
:10112000E5FC0546306880033FF5CAAEFFF7DEFCFC
:10113000401B6428F6D9032002B0BDE8F08100BF4F
:101140007068E16900F480028A4221D1216A00F0CE
:101150003F028A421CD147F6C071626A0140B1EB7E
:10116000821F15D1A16A4FF6FF73C903994300F49A
:101170004032A1F580318A420AD1E16A00F0706004
:10118000B0EB016F04D1002002B0BDE8F08100BFD8
:10119000012002B0BDE8F08104F11C052FCD084309
:1011A00040EA8210D9034FF6FF729143A1F58031D6
:1011B00040EA05600843706001203866FFF796FC3E
:1011C000044600BF30688001DDD4FFF78FFC001BB0
:1011D00002284FF00300F5D95BE700BFFFF786FC5C
:1011E000054641F2883700BF306F800708D5FFF70A
:1011F0007DFC401BB8424FF00300F5D949E700BF22
:10120000B8F1000F3FF581AE306C20F080503064B3
:101210007BE600BFFFF76AFC054600BF306880032D
:101220007FF54EAEFFF762FC401B64284FF00300D1
:10123000F4D92EE7411E0020B0EB116F1CBF012036
:1012400070474EF21002CEF2000251604EF623516A
:10125000CEF20001F0230B700721906011607047FF
:1012600090F84230202B0BD194460A4600294FF0CB
:10127000010118BFBCF1000F06D10846704700BF3E
:1012800002210846704700BFB0B582B0012101635A
:101290000025222145638262A0F82CC0456480F8B5
:1012A0004210C36B42F2C10E42F22124C0F6000E7E
:1012B000C0F600040168C3E90FE441F64574C0F6C6
:1012C0000004C3E913450431044618466346FFF79A
:1012D000DDFA0195216820460A680192496801916A
:1012E0000199216931B300BF016851E8031F026809
:1012F00041F4807142E80313E3B1016851E8031F30
:10130000026841F4807142E803139BB1016851E81F
:10131000031F026841F4807142E8031353B101686E
:1013200051E8031F026841F4807142E80313002B67
:10133000DAD100BF016851E8051F026841F00101E0
:1013400042E80513BBB3016851E8051F026841F08C
:10135000010142E8051373B3016851E8051F0268F3
:1013600041F0010142E805132BB3016851E8051F64
:10137000026841F0010142E80513002BDAD11AE0BE
:10138000016851E8051F026841F0400142E8051379
:10139000DBB1016851E8051F026841F0400142E8F5
:1013A000051393B1016851E8051F026841F040013F
:1013B00042E805134BB1016851E8051F026841F08E
:1013C000400142E80513002BDAD1016B012933D12A
:1013D0000021009101680A68009249680091009913
:1013E000016851E8031F026841F0100142E803134D
:1013F000DBB1016851E8031F026841F0100142E8C7
:10140000031393B1016851E8031F026841F0100112
:1014100042E803134BB1016851E8031F026841F031
:10142000100142E80313002BDAD1002102B0BDE81D
:10143000B0400846704700BF012102B0BDE8B0408F
:1014400008467047026841F20040C4F2010082423F
:1014500018BF704770B50C4600F580304FF48041DE
:10146000FFF736FB40F2382540F28026C2F2000535
:10147000C2F2000628463146224600F00BFC284600
:1014800031463222FFF7ECFE40F23010C2F200008B
:101490000068016821F008010160BDE870407047F4
:1014A00070470000B0B582B001680A68CC684B692B
:1014B00002F02F05202D04F0200505D125B102B042
:1014C000BDE8B04000F014BF5FEA027C1EBF03F02D
:1014D000010E04F4907313EB0E0341D1036BD50698
:1014E00018D5012B16D114F0100313D0002201924D
:1014F0000A6801924A680192019A496949064BD4E7
:10150000818DC28DC38D002B18BF914240F0F481B4
:1015100002B0B0BD13062DD514F080032AD090F888
:101520004120212AF4D18268B2F5805F03D102699B
:10153000002A00F06782026A531C036212784A6034
:10154000C28C013A1304C284E2D1C86820F0800042
:10155000C860C86840F04000C86002B0B0BD00BFBD
:10156000D30718BF14F4807340F0D080530700F104
:10157000D380D8E05206CBD514F04002C8D0CA6858
:1015800022F04002CA60202180F8411002B0BDE87C
:10159000B04000F0DDBB00BFC16B0A68526893B277
:1015A000002BB5D0858DAB42B2D2C285C969B1F5E9
:1015B000807F00F0A080016851E8031F026821F4D9
:1015C000807142E80313DBB1016851E8031F026830
:1015D00021F4807142E8031393B1016851E8031FBD
:1015E000026821F4807142E803134BB1016851E8AD
:1015F000031F026821F4807142E80313002BDAD143
:10160000016851E8051F026821F0010142E8051355
:10161000BBB3016851E8051F026821F0010142E8EF
:10162000051373B3016851E8051F026821F0010139
:1016300042E805132BB3016851E8051F026821F049
:10164000010142E80513002BDAD11AE0016851E8E4
:10165000051F026821F0400142E80513DBB1016873
:1016600051E8051F026821F0400142E8051393B1DB
:10167000016851E8051F026821F0400142E80513A6
:101680004BB1016851E8051F026821F0400142E8B2
:101690000513002BDAD1202180F8421000210163CC
:1016A000016851E8031F026821F0100142E80313AA
:1016B000DBB1016851E8031F026821F0100142E824
:1016C000031393B1016851E8031F026821F0100170
:1016D00042E803134BB1016851E8031F026821F08F
:1016E000100142E80313002BDAD1C16B044608460F
:1016F000FEF7DEFE204602214163818DC28D891AEC
:1017000089B202B0BDE8B040FFF79CBE436C43F025
:1017100001034364530706D5BEF1000F03D0436CA9
:1017200043F002034364930706D5BEF1000F03D0D4
:10173000436C43F004034364BCF1000F06D55EEA3A
:10174000050303D0436C43F008034364436C002B50
:101750003FF4DEAE920605D525B1044600F0C8FD83
:10176000216820464969426C01F0400102F00802FC
:10177000891800F0B98000BF016851E8031F0268B2
:1017800021F4907142E80313BBB3016851E8031FD1
:10179000026821F4907142E8031373B3016851E8C1
:1017A000031F026821F4907142E803132BB3016810
:1017B00051E8031F026821F4907142E80313002BE3
:1017C000DAD11AE0016851E8051F026821F0010131
:1017D00042E80513DBB1016851E8051F026821F0FA
:1017E000010142E8051393B1016851E8051F026841
:1017F00021F0010142E805134BB1016851E8051FD2
:10180000026821F0010142E80513002BDAD1016BD7
:10181000012924D1016851E8031F026821F0100159
:1018200042E80313DBB1016851E8031F026821F0AD
:10183000100142E8031393B1016851E8031F0268E5
:1018400021F0100142E803134BB1016851E8031F76
:10185000026821F0100142E80313002BDAD12021A5
:1018600080F842100021016301684969490640F18E
:10187000C380016851E8051F026821F0400142E879
:101880000513DBB1016851E8051F026821F0400132
:1018900042E8051393B1016851E8051F026821F081
:1018A000400142E805134BB1016851E8051F026889
:1018B00021F0400142E80513002BDAD1C16B002969
:1018C00000F09A8041F63972C0F6000204460846DC
:1018D0000A65FEF735FE00283FF41AAEE06B016D95
:1018E00002B0BDE8B04008470446FFF7D9FD00202C
:1018F000606402B0B0BD00BF891A00BF026852E840
:10190000032F036822F4907243E80325BDB30268F5
:1019100052E8032F036822F4907243E8032575B35D
:10192000026852E8032F036822F4907243E803250B
:101930002DB3026852E8032F036822F4907243E843
:101940000325002DDAD11AE0026852E8052F03685A
:1019500022F0010243E80525DDB1026852E8052FB7
:10196000036822F0010243E8052595B1026852E8B8
:10197000052F036822F0010243E805254DB10268F6
:1019800052E8052F036822F0010243E80525002DE7
:10199000DAD1202280F8422000220263026852E855
:1019A000032F036822F0100243E80325DDB102682B
:1019B00052E8032F036822F0100243E8032595B193
:1019C000026852E8032F036822F0100243E803255F
:1019D0004DB1026852E8032F036822F0100243E879
:1019E0000325002DDAD1022289B2426302B0BDE89C
:1019F000B040FFF727BD00BF02B0BDE8B040FFF721
:101A00004FBD00BF026A32F8023B6FF35F234B60A9
:101A1000026295E5002804BF0120704710B5044616
:101A200090F8410028B9002084F84000204600F0DA
:101A300021F8242084F841002068C16821F4005175
:101A4000C160204600F0D4FC2068016921F4904177
:101A50000161416921F02A014161C16841F40051ED
:101A6000C16000202021606484F8411084F8421095
:101A7000606310BD2DE9F04F87B00446006841F265
:101A80000041C4F2010100268842CDE90566CDE996
:101A90000366029600F0888041F20001C4F2010161
:101AA000884240F0EF80002743F630000197C4F2EF
:101AB00002004169002541F0100141614169C4F211
:101AC000020501F01001019101990197016802AE30
:101AD00041F002010160016846F2284801F002016C
:101AE00001910199019701684FF0020941F001014C
:101AF000016000684FF0030A00F0010001900198B6
:101B0000802002904FF0070B05F580603146C4F24B
:101B10000208CDE90397CDF814A0CDF818B0FEF770
:101B200007FF4FF40070CDE9020904A880E8800C9B
:101B300028463146FEF7FCFE40F2700508F1180019
:101B4000C2F200054FF000664FF4806985E8C100DD
:101B50002846C5E90379C5E90577C5E907776F62C6
:101B6000FEF7E2FD002818BFFEF79EFCE563AC63BC
:101B700040F2D00508F19000C2F200054021C5E90D
:101B8000000605F1080080E882022846C5E90577CD
:101B9000C5E907776F62FEF7C7FD00284FF02506FD
:101BA00018BFFEF781FC63E043F630000196C4F2F3
:101BB0000200416946F2284841F020014161416933
:101BC000C4F2020801F02001019101990196016817
:101BD00041F040010160006802A900F0400001905E
:101BE00001984FF4844002900220CDE903060320BF
:101BF0000590082006900020C4F2020000F5C050B5
:101C0000FEF796FE40F23015C2F200054FF0206755
:101C10004FF480692846C5E90087C5E90266C5E931
:101C20000496C5E90666C5E90866FEF77DFD00284D
:101C300018BFFEF739FCE563AC6340F2901508F17C
:101C40007800C2F200054021C5E9000705F108004F
:101C5000002280E806022846C5E90522C5E90722D8
:101C60006A62FEF761FD4FF0470608B1FEF71CFC03
:101C7000304600210022A563AC63FEF7B9FF304671
:101C8000FEF7A4FF07B0BDE8F08F0000704700002A
:101C900070470000B0B590F84140202C1CBF0220D6
:101CA000B0BD134600294FF0010218BF002B01D12F
:101CB0001046B0BD0022212401628384C3844264A3
:101CC00080F84140D0F838C042F2392E42F2E9257E
:101CD000C0F6000EC0F600050468CCE90FE541F639
:101CE0004575C0F60005CCE91352221D0446604636
:101CF000FEF7CCFD216820466FF040020A6000BF6D
:101D0000016851E8051F026841F0800142E80513AF
:101D1000DBB1016851E8051F026841F0800142E82B
:101D2000051393B1016851E8051F026841F0800175
:101D300042E805134BB1016851E8051F026841F004
:101D4000800142E80513002BDAD100221046B0BD15
:101D50007047000070470000FEE7000080B582B0C9
:101D60000020019043F63000C4F202000168002216
:101D700041F4800101600068002100F480000190BE
:101D800001983920FEF734FF3920FEF71FFF3A2073
:101D900000210022FEF72CFF3A20FEF717FF452016
:101DA00000210022FEF724FF4520FEF70FFF46200A
:101DB00000210022FEF71CFF462002B0BDE8804053
:101DC000FEF704BF2DE9F04387B0002743F630004B
:101DD0000697CDE90477CDE902770197C4F20200B6
:101DE000016841F2000941F0400101600168C4F25C
:101DF000020901F040010191019901970168002257
:101E000041F00101016001684FF4006601F0010139
:101E1000019101990197016841F002010160016897
:101E200001F00201019101990197016841F010014F
:101E30000160016801F010010191019901970168A9
:101E400041F02001016000684FF4006100F02000C3
:101E5000019001984846FEF743FE09F58065284643
:101E60004FF4804100224FF48048FEF739FE02967D
:101E700002AE012448463146CDE903470597FEF7F7
:101E800057FD28463146CDE90284CDE90477FEF7B7
:101E90004FFD07B0BDE8F08380B540F2F01041F28D
:101EA0000001C2F20000C4F2010100234FF00C0C4B
:101EB0004FF4E13280E80E00C0E90333C0E905C306
:101EC000C361FFF7A7FD002808BF80BDBDE88040C3
:101ED000FEF7EABA80B540F2382041F20041C2F282
:101EE0000000C4F2010100234FF00C0C4FF4E1326A
:101EF00080E80E00C0E90333C0E905C3C361FFF702
:101F000089FD002808BF80BDBDE88040FEF7CCBA3F
:101F1000FEE70000FEE70000704700007047000089
:101F2000FEF7EABD4EF68850CEF20000016841F49B
:101F30007001016070470000806B0021C185C18481
:101F4000FFF7AEBA806B01684A6990F84130212BE7
:101F50002DD112F080022AD00021C184016851E8FD
:101F6000031F026821F0C00142E80313DBB10168DE
:101F700051E8031F026821F0C00142E8031393B146
:101F8000016851E8031F026821F0C00142E8031311
:101F90004BB1016851E8031F026821F0C00142E81B
:101FA0000313002BDAD1202180F841100168496920
:101FB00090F84220222A40F07D8011F0400179D033
:101FC0000021C185016851E8031F026821F4907166
:101FD00042E80313BBB3016851E8031F026821F410
:101FE000907142E8031373B3016851E8031F02685C
:101FF00021F4907142E803132BB3016851E8031FE9
:10200000026821F4907142E80313002BDAD11AE040
:10201000016851E8051F026821F0010142E805133B
:10202000DBB1016851E8051F026821F0010142E8B7
:10203000051393B1016851E8051F026821F0010101
:1020400042E805134BB1016851E8051F026821F011
:10205000010142E80513002BDAD1016B012924D1DB
:10206000016851E8031F026821F0100142E80313E0
:10207000DBB1016851E8031F026821F0100142E85A
:10208000031393B1016851E8031F026821F01001A6
:1020900042E803134BB1016851E8031F026821F0C5
:1020A000100142E80313002BDAD1202180F84210FE
:1020B00000210163416C41F010014164FFF7F0B968
:1020C0000168806B0968C90500F19F800021C18506
:1020D000016851E8031F026821F4807142E803138C
:1020E000E3B1016851E8031F026821F4807142E8FE
:1020F00003139BB1016851E8031F026821F480714A
:1021000042E8031353B1016851E8031F026821F448
:10211000807142E80313002BDAD100BF016851E857
:10212000051F026821F0010142E80513BBB30168F5
:1021300051E8051F026821F0010142E8051373B35D
:10214000016851E8051F026821F0010142E805130A
:102150002BB3016851E8051F026821F0010142E834
:102160000513002BDAD11AE0016851E8051F026857
:1021700021F0400142E80513DBB1016851E8051F79
:10218000026821F0400142E8051393B1016851E86B
:10219000051F026821F0400142E805134BB10168B8
:1021A00051E8051F026821F0400142E80513002BA9
:1021B000DAD1202180F84210016B012925D100BF1E
:1021C000016851E8031F026821F0100142E803137F
:1021D000DBB1016851E8031F026821F0100142E8F9
:1021E000031393B1016851E8031F026821F0100145
:1021F00042E803134BB1016851E8031F026821F064
:10220000100142E80313002BDAD100214163016B76
:10221000012918BFFFF73ABD818DFFF713B9000000
:10222000806B01214163016B012918BFFFF730BDAD
:10223000818D4908FFF706B90168806B0968C905F7
:1022400048BFFFF785BD0021C18400BF016851E888
:10225000051F026821F0800142E8051383B301687D
:1022600051E8051F026821F0800142E805133BB3E5
:10227000016851E8051F026821F0800142E805135A
:10228000F3B1016851E8051F026821F0800142E8BE
:102290000513002BDAD113E0016851E8031F02682F
:1022A00041F0400142E80313002B08BF704701686A
:1022B00051E8031F026841F0400142E8031393B163
:1022C000016851E8031F026841F0400142E803132E
:1022D0004BB1016851E8031F026841F0400142E838
:1022E0000313002BD8D17047806BFFF733BD00007C
:1022F00081B090F84210222921D183680246B3F5BB
:10230000805F09D152F8281F52F8183C002B63D087
:1023100003685B680AE000BF52F8281F13B903691D
:10232000002BF5D003685B6803F07F030B70116826
:1023300001311160C18D01390A04C18502D001B09B
:10234000704700BF0168CA6822F02002CA60CA68EC
:1023500022F48072CA604A6922F001024A61202197
:1023600080F8421000214163026B012A3CD10163D5
:10237000016851E8031F026821F0100142E80313CD
:10238000DBB1016851E8031F026821F0100142E847
:10239000031393B1016851E8031F026821F0100193
:1023A00042E803134BB1016851E8031F026821F0B2
:1023B000100142E80313002BDAD101680A68D20643
:1023C00006D5002200920A6800924968009100999F
:1023D000818D01B0FFF736B8026852686FF35F2253
:1023E00021F8022B8162A5E701B0FFF74FBC000086
:1023F000B0B50446006804F108030ECB0569194323
:1024000025F440552A4302616269E3691143C268B9
:10241000194349F20C639A431143C1604169A269AF
:1024200021F4407141F20043114340F48062C4F250
:1024300001039A42416103D1FEF7DCFC02E000BFD8
:10244000FEF7C4FCE1694FF69C7563681922C0F67B
:10245000FF75B1F5004FA0FB02011FD15A00DB0F41
:10246000FDF72AFF48F21F51C5F2EB11A0FB012333
:102470005A0905F1805302FB0300322303EBC0002D
:10248000A0FB01014FF4F87000EA111000EB0210FC
:10249000C1F34211084421688860B0BD9A009B0FC7
:1024A000FDF70AFF48F21F51C5F2EB11A0FB012313
:1024B0005A0902FB0500322303EB0010A0FB0101C7
:1024C000F02000EA511000EB0210C1F34311084460
:1024D00021688860B0BD000040F2F010C2F2000038
:1024E000FEF7E0BF40F23820C2F20000FEF7DABF8C
:1024F000FEE7000092B0FEF70DFB06AC204630214F
:10250000FDF752FF002543F640000595CDE9035540
:10251000CDE901550095C4F202000168012241F0A5
:1025200080510160006800F080500090009847F2F0
:1025300000000095C4F20000016862F38F31016071
:10254000006800F44040009000980220069010209F
:102550000A90204609920C95FEF796FC10B172B6CF
:10256000FEE700BF0F20CDE9010501A80021CDE95C
:1025700003550595FEF778FB10B172B6FEE700BF74
:10258000FFF720FCFFF7EAFBFFF786FCFFF7A2FC52
:1025900040F2382040F28021C2F20000C2F2000175
:1025A0003222FEF75DFE40F23010C2F200000068F9
:1025B000016821F008010160FEE7F1EE100A4FF614
:1025C000FF71C0F2C03120EA010040F04070E1EE3E
:1025D000100A704700000000000000000102030420
:1025E0000607080900000000010203040006101697
:1025F0000006101618260008000000201000000039
:10260000100200082826000810000020A80800007A
:10261000300200080000000001000000100000006F
:082620000024F400000000009A
:04000005080001AD41
:00000001FF
